:100000000C9458000C94BC010C9480000C9480005B
:100010000C9480000C9480000C9480000C94800060
:100020000C9480000C9480000C9480000C94800050
:100030000C9480000C9480000C9480000C94800040
:100040000C9480000C9480000C9480000C94800030
:100050000C9480000C9480000C9480000C94800020
:100060000C9480000C9480000902120001010080B1
:10007000FA09040000000000000012011001FF0056
:100080000008C016DC050001010200010E034E004D
:100090006500620075006C00610010034D00750082
:1000A0007400650078007200650004030904D1043F
:1000B00011241FBECFEFD8E0DEBFCDBF11E0A0E01E
:1000C000B1E0E0E8FCE002C005900D92A631B10776
:1000D000D9F711E0A6E1B1E001C01D92A836B10741
:1000E000E1F710E0C0EBD0E004C02297FE010E94CF
:1000F000DA04CE3AD107C9F70E94AB040C943E064D
:100100000C940000CF93DF9360914A01635067FD28
:10011000AEC0209147018CE090E0821B9109EC0178
:10012000C25BDE4F209146012D3209F08DC0683050
:1001300009F09BC023EC20933A012AE520930001AB
:10014000109216012881207639F0CE010E94F20229
:100150008F3F09F468C06EC03A8110924301298133
:10016000222331F41092440123E431E082E056C0AE
:10017000253019F430934B0147C02630E1F5FC01DE
:10018000E05BFE4F20818F5A9E4FFC0180818130C1
:1001900019F48AE790E004C0823041F488E690E0E8
:1001A000909349018093480182E121C08330F1F4AA
:1001B000222341F48AEA90E0909349018093480118
:1001C00084E015C0213041F48AE990E09093490120
:1001D0008093480180E10BC0223041F48CE890E02C
:1001E00090934901809348018EE001C080E090E443
:1001F000909316011FC0283059F0293019F430931C
:100200004D0102C02A3039F023E431E080E006C01D
:100210002DE431E002C023E431E081E03093490174
:100220002093480107C0988197FD8E8190E89093B4
:10023000160107C09F81992321F49E81981708F425
:10024000892F8093010111C08091160187FF0DC095
:10025000CE010E9429048F3F21F48EE1809300019A
:1002600004C0882311F01092010110924A0180917C
:10027000000184FF54C0809101018F3F09F44FC0F9
:10028000C82F893008F0C8E08C1B80930101809151
:100290003A0198E8892780933A01CC2371F12091A3
:1002A000160127FF09C08BE391E06C2F0E945503D4
:1002B000C82F893070F521C0809148019091490183
:1002C00026FF0AC0FC012C2FABE3B1E034913D9333
:1002D00031962150D9F708C0DC012C2FEBE3F1E077
:1002E0003D9131932150E1F701962C2F2150820F3F
:1002F000911D90934901809348018BE391E06C2F0D
:100300000E94B801CC5FCC3041F08FEF80930101A7
:1003100004C08FEF80930101CEE1C093000184E11E
:1003200099B19C7031F48150D9F710924B01109221
:100330004501DF91CF910895E9E6F0E08081826088
:100340008083E89A0895A82FB92F80E090E041E0DB
:1003500050EA609530E009C02D91822797958795E6
:1003600010F084279527305EC8F36F5FA8F30895D7
:10037000EADF8D939D930895CF93CFB7CF93DF930B
:10038000C3954B9BE9F74B9B0BC04B9B09C04B9B09
:1003900007C04B9B05C04B9B03C04B9B01C089C052
:1003A0006F93C0914701DD27C25BDE4F2F9365E558
:1003B0004B9B03C02F916F91E6CF0F931F934F93E9
:1003C00020E040E15F9309B10C7003FB27F93F93F4
:1003D00050E03BE039C01C7040642F77012F5F5F15
:1003E0001EC0406819B11C702F7752501FC0406466
:1003F00009B12F770C70D1F15F5F00C023C040625C
:1004000019B12F771C7091F15F5F00C025C00C708F
:100410001027515012F45D5F0000115027952C3FBA
:1004200019B1C8F61C700127015027952C3FC8F65A
:100430004227499309B10C7010274F73115027952B
:100440002C3FA8F64695469519B11C7079F0012706
:10045000015027952C3F98F66B5A60F3315009B143
:10046000B0F600C011E01CBB002717C03B5031950F
:10047000C31BD04011E01CBB0881033CF9F00B34D6
:10048000E9F0209145011981110F1213EDCF0936C2
:1004900051F10D3211F0013E39F700934C013F91BB
:1004A0005F914F911F910F912F916F91CCB3C0FD30
:1004B00067CFDF91CF91CFBFCF91189520914C019D
:1004C000222369F310914A01112339F534303AF1AE
:1004D00030934A0120934601109147013BE0311BC4
:1004E000309347011CC000914A010130B4F40AE581
:1004F0003091000134FD14C000930001CAE3D1E043
:1005000013C0052710E000C000000BB91AC0052772
:1005100010E0221F1DC010E021C04AE502C032EDEC
:10052000432FC4E1D0E032E01AB11C605B9A0BB1FA
:100530001AB95CE020E865E320FF05270BB9279591
:1005400017951C3FF0F66695B8F7B1F720FF052721
:100550000BB9279517951C3FD0F62795179517FFD0
:10056000052700001C3F0BB9B0F629913A9519F701
:10057000037F10914B01110FC651D0400BB911F000
:100580001093450111E01CBB08601AB1137F402F86
:10059000437F54E05A95F1F70BB91AB94BB97FCFA5
:1005A000DC01ED91FC910190F081E02D0995089519
:1005B00081E008950895FC01259A80E2828385E216
:1005C00090E094838383089584B18FEF84B985B9D3
:1005D0008FE39CE90197F1F700C0000015B808957A
:1005E00085B90895CF93DF93EC0189818130C1F003
:1005F000813020F0823009F054C038C08E819F8154
:100600008031910509F04DC01092300110922F01F8
:10061000E7E2F1E088E0099001928150E1F73FC004
:100620002881809131019091320120FF03C09B838A
:100630008A8337C02A813B818217930780F4809197
:10064000380190913901009711F00E9474058A8158
:100650009B810E94DE0480933801909339018A8146
:100660009B8190933201809331011BC02091310115
:1006700030913201C901880F991F820F931F2E817B
:100680003F812817390769F41092300110922F0129
:10069000E7E2F1E088E0099001928150E1F78FEF05
:1006A00001C080E0DF91CF910895CF93C62F2091B4
:1006B000280140912F0150913001222319F022305E
:1006C00011F512C06091290170912A01E4E0660FD2
:1006D000771FEA95E1F760507040640F751F4C2F4B
:1006E00050E00E9416060FC09A01220F331F240FFC
:1006F000351F6091380170913901620F731F4C2FC3
:1007000050E00E940D0620912F01309130012C0FF6
:10071000311D3093300120932F0181E040912D0154
:1007200050912E012417350708F480E0CF910895E9
:100730000F93001401E00A95F1F70F9108950F93BC
:10074000001402E00A95F1F70F910895DF92EF92FD
:10075000FF920F931F93CF93DF93FC018B01F894CB
:10076000F2800380F481E02DEA01CC0FDD1FC40F7D
:10077000D51FC60FD71FE080EF288081F094F822A4
:10078000F0825AC0F801D1908F01E5B8001400142E
:100790000014D7FEF5B80E949803F5B80E949F0395
:1007A000E5B8001400140014D6FEF5B80E949803B2
:1007B000F5B80E949F03E5B8001400140014D5FE9C
:1007C000F5B80E949803F5B80E949F03E5B800149D
:1007D00000140014D4FEF5B80E949803F5B80E94E6
:1007E0009F03E5B8001400140014D3FEF5B80E946E
:1007F0009803F5B80E949F03E5B800140014001494
:10080000D2FEF5B80E949803F5B80E949F03E5B8A0
:10081000001400140014D1FEF5B80E949803F5B836
:100820000E949F03E5B8001400140014D0FEF5B830
:100830000E949803F5B80014C017D10708F0A2CFA2
:100840007894DF91CF911F910F91FF90EF90DF90FF
:1008500008950F931F93CF93DF93582F792F462F2F
:1008600080912801882321F0823009F06CC039C0C2
:10087000C0912F01D0913001062F10E09E01295E1A
:100880003E4FC901652F50E00E940D06C00FD11FD9
:10089000D0933001C0932F0180912D0190912E01B2
:1008A000C817D90708F44FC080E390E06091290190
:1008B0000E9430068091290190912A01B4E0880FAE
:1008C000991FBA95E1F78050904067E171E040E1EF
:1008D00050E00E94260680E390E06FEF0E94300611
:1008E00034C0C62FD0E02091380130913901E09119
:1008F0002F01F09130012E0F3F1FC901652F50E0ED
:100900000E940D0680912F01909130018C0F9D1F48
:100910009093300180932F0120912D0130912E0171
:100920008217930780F040913101509132014115B7
:10093000510559F0609138017091390183E391E0DC
:100940000E94A60302C080E001C081E0DF91CF9148
:100950001F910F91089584B18FEF84B92EE088E143
:1009600090E00FB6F894A895809360000FBE209396
:10097000600083E391E00E94DB020E949C01539A95
:100980008AEF90E0A895EFE3FFE13197F1F700C01F
:1009900000000197B9F753987894A8950E948200B7
:1009A000FCCF86E091E09093340180933301089569
:1009B000EE0FFF1F0590F491E02D0994CF93DF9384
:1009C000AC018230910510F442E050E0E091660104
:1009D000F091670120E030E0A0E0B0E024C0808129
:1009E000918184179507D0F08417950771F482815F
:1009F0009381109729F013969C938E9312972CC095
:100A0000909367018093660127C02115310519F085
:100A10008217930718F49C01BD01EF019281838135
:100A2000DF01E92FF82F3097D1F621153105F9F0C4
:100A3000C901841B950B8430910580F48A819B81C8
:100A40006115710521F0FB019383828304C09093AB
:100A5000670180936601FE01329642C0FE01E80FF5
:100A6000F91F4193519302979983888339C08091EC
:100A7000640190916501009741F480911201909179
:100A800013019093650180936401209110013091CE
:100A900011012115310541F42DB73EB780911401A4
:100AA00090911501281B390BE0916401F0916501CB
:100AB000E217F30798F42E1B3F0B2417350770F04D
:100AC000CA0102962817390748F08E0F9F1F90938E
:100AD0006501809364014193519302C0E0E0F0E02E
:100AE000CF01DF91CF9108950F931F93CF93DF93A1
:100AF0009C01009709F48CC0DC01129713961C929C
:100B00001E921297609166017091670161157105DF
:100B100089F48D919C911197820F931F209164010C
:100B2000309165012817390769F5B0936501A093E5
:100B300064016EC0FB0140E050E001C0FC01EA1717
:100B4000FB0730F482819381AF010097B9F71FC092
:100B5000E9012297FB83EA8308811981C901800F8B
:100B6000911F8E179F0759F480819181800F911FEB
:100B7000029699838883828193819B838A8341151E
:100B8000510529F4B0936701A093660141C0FA01B1
:100B9000B383A283C191D191EC0FFD1FAE17BF07A4
:100BA00081F4F901929182918C0F9D1F0296DA01D6
:100BB00011969C938E938281938113969C938E932E
:100BC0001297E0E0F0E002C0FB01BC01DB011296ED
:100BD0008D919C9113970097B9F7CB0102962D91B7
:100BE0003C911197820F931F209164013091650110
:100BF0002817390769F4309729F410926701109289
:100C0000660102C0138212827093650160936401D1
:100C1000DF91CF911F910F910895FB01DC0102C07C
:100C200001900D9241505040D8F70895DC01CB015E
:100C3000FC01F999FECF06C0F2BDE1BDF89A3196EC
:100C400000B40D9241505040B8F70895DC01CB013B
:100C500003C02D910E94310641505040D0F70895B5
:100C6000262FF999FECF1FBA92BD81BD20BD0FB6C8
:100C7000F894FA9AF99A0FBE01960895F894FFCF66
:100C80005AFF00000000DB02D002A603D802DA02FD
:060C9000000068012000D5
:00000001FF
