:100000000C945C000C94E5010C9484000C94840026
:100010000C9484000C9484000C9484000C94840050
:100020000C9484000C9484000C9484000C94840040
:100030000C9484000C9484000C9484000C94840030
:100040000C9484000C9484000C9484000C94840020
:100050000C9484000C9484000C9484000C94840010
:100060000C9484000C9484000902190001010080A2
:10007000FA09040000010000000007050102080061
:100080000112011001FF000008C016DC050001018B
:100090000200010E034E006500620075006C0061F5
:1000A0000010034D00750074006500780072006553
:1000B0000004030904005E0411241FBECFEFD8E042
:1000C000DEBFCDBF11E0A0E0B1E0E8E3FBE002C09D
:1000D00005900D92A631B107D9F711E0A6E1B1E084
:1000E00001C01D92AE35B107E1F710E0C8EBD0E0DA
:1000F00004C02297FE010E946704C63BD107C9F7DE
:100100000E9438040C949A050C940000CF93C62FDB
:1001100020912F0124FF07C02091300138E82327C8
:100120002093300103C02AE520932F012C2FFC01DE
:10013000A1E3B1E081918D9321501216DCF381E3AC
:1001400091E06C2F0E94E101CC5FC0932F01CF9111
:100150000895CF93DF9360914001635067FDBAC06B
:1001600020913D018CE090E0821B9109EC01CC5B79
:10017000DE4F20913C012D3209F099C0683009F022
:10018000A7C023EC209324012AE5209300011092BC
:1001900016012881207639F0CE010E9428038F3F76
:1001A00009F474C07AC03A8110922D01298122236A
:1001B00031F410922E012DE231E082E062C0253050
:1001C00019F4309341015AC0263009F041C0FC01B6
:1001D000EA5BFE4F2081895B9E4FFC01808181306C
:1001E00041F481E890E090933F0180933E0182E1E9
:1001F0002BC0823041F488E690E090933F018093D9
:100200003E0189E121C08330F1F4222341F481EBE6
:1002100090E090933F0180933E0184E015C021302F
:1002200041F481EA90E090933F0180933E0180E1A8
:100230000BC0223041F483E990E090933F0180931A
:100240003E018EE001C080E090E49093160125C04D
:10025000283069F0293019F4309343010FC02A3057
:1002600049F02B3059F48BE48093300107C023E42C
:1002700031E002C02DE231E081E003C02DE231E047
:1002800080E030933F0120933E0107C0988197FDA5
:100290008E8190E89093160107C09F81992321F4E5
:1002A0009E81981708F4892F8093010111C08091D5
:1002B000160187FF0DC0CE010E94FE038F3F21F47F
:1002C0008EE18093000104C0882311F01092010197
:1002D000109240018091000184FF44C0809101018F
:1002E0008F3F09F43FC0C82F893008F0C8E08C1B4D
:1002F000809301018091240198E88927809324014B
:10030000CC2319F180913E0190913F01209116017B
:1003100026FF0AC0FC012C2FA5E2B1E034913D93E9
:1003200031962150D9F708C0DC012C2FE5E2F1E02D
:100330003D9131932150E1F701962C2F2150820FEE
:10034000911D90933F0180933E0185E291E06C2FD7
:100350000E94E101CC5FCC3019F08FEF8093010156
:10036000C093000184E199B19C7031F48150D9F7B8
:100370001092410110923B01DF91CF910895E9E67F
:10038000F0E0808182608083E89A8BE48093300182
:100390008AE580932F010895A82FB92F80E090E07F
:1003A00041E050EA609530E009C02D918227979591
:1003B000879510F084279527305EC8F36F5FA8F308
:1003C0000895EADF8D939D930895CF93CFB7CF9390
:1003D000DF93C3954B9BE9F74B9B0BC04B9B09C02D
:1003E0004B9B07C04B9B05C04B9B03C04B9B01C065
:1003F0008BC06F93C0913D01DD27CC5BDE4F2F9307
:1004000065E54B9B03C02F916F91E6CF0F931F9330
:100410004F9320E040E15F9309B10C7003FB27F993
:100420003F9350E03BE039C01C7040642F77012FB0
:100430005F5F1EC0406819B11C702F7752501FC0FB
:10044000406409B12F770C70D1F15F5F00C023C009
:10045000406219B12F771C7091F15F5F00C025C019
:100460000C701027515012F45D5F00001150279559
:100470002C3F19B1C8F61C700127015027952C3F5D
:10048000C8F64227499309B10C7010274F731150D9
:1004900027952C3FA8F64695469519B11C7079F022
:1004A0000127015027952C3F98F66B5A60F3315085
:1004B00009B1B0F600C011E01CBB002719C03B50C9
:1004C0003195C31BD04011E01CBB0881033C09F1EE
:1004D0000B34F9F020913B011981110F1213EDCF6C
:1004E0004A81441F093651F10D3211F0013E29F7BE
:1004F000009342013F915F914F911F910F912F9176
:100500006F91CCB3C0FD65CFDF91CF91CFBFCF91BD
:10051000189520914201222369F310914001112383
:1005200091F5343092F13093400120933C011091C9
:100530003D013BE0311B30933D0127C0009140015C
:1005400001300CF50AE54F7049F43091000134FD9B
:100550001DC000930001C4E2D1E01CC030912F0106
:1005600034FD14C000932F01C0E3D1E013C0052770
:1005700010E000C000000BB91AC0052710E0221FD0
:100580001DC010E021C04AE502C032ED432FC4E196
:10059000D0E032E01AB11C605B9A0BB11AB95CE092
:1005A00020E865E320FF05270BB9279517951C3F29
:1005B000F0F66695B8F7B1F720FF05270BB9279538
:1005C00017951C3FD0F62795179517FF05270000B4
:1005D0001C3F0BB9B0F629913A9519F7037F10919A
:1005E0004101110FC651D0400BB911F010933B01DE
:1005F00011E01CBB08601AB1137F402F437F54E009
:100600005A95F1F70BB91AB94BB974CFDC01ED91DA
:10061000FC910190F081E02D0995089581E0089505
:100620000895FC01259A80E2828385E290E094831C
:100630008383089584B18FEF84B985B98FE39CE9F2
:100640000197F1F700C0000015B8089585B9089525
:10065000CF93DF93EC018981882319F08130C9F5AC
:1006600020C020911B0130911C018A819B81281799
:10067000390780F48091220190912301009711F0B5
:100680000E9401058A819B810E946B048093220154
:10069000909323018A819B8190931C0180931B017D
:1006A00018C02E813F8140911B0150911C01CA014D
:1006B000880F991F840F951F2817390751F430931D
:1006C0001A012093190110921801109217018FEF4F
:1006D00001C080E0DF91CF9108950F93001401E0F5
:1006E0000A95F1F70F9108950F93001402E00A950F
:1006F000F1F70F910895DF92EF92FF920F931F93FE
:10070000CF93DF93FC018B01F894F2800380F48196
:10071000E02DEA01CC0FDD1FC40FD51FC60FD71F78
:10072000E080EF288081F094F822F0825AC0F8012E
:10073000D1908F01E5B8001400140014D7FEF5B86D
:100740000E946D03F5B80E947403E5B8001400140C
:100750000014D6FEF5B80E946D03F5B80E9474032C
:10076000E5B8001400140014D5FEF5B80E946D031E
:10077000F5B80E947403E5B8001400140014D4FE08
:10078000F5B80E946D03F5B80E947403E5B8001433
:1007900000140014D3FEF5B80E946D03F5B80E9452
:1007A0007403E5B8001400140014D2FEF5B80E94DA
:1007B0006D03F5B80E947403E5B80014001400142A
:1007C000D1FEF5B80E946D03F5B80E947403E5B838
:1007D000001400140014D0FEF5B80E946D03F5B8A3
:1007E0000014C017D10708F0A2CF7894DF91CF9101
:1007F0001F910F91FF90EF90DF900895DC0120E0B2
:1008000030E070E00CC04D91E0912201F0912301A5
:10081000E20FF31FE80FF91F40832F5F3F4F8091D6
:100820001701909118012617370768F3860F971F55
:1008300090931801809317012091190130911A01AA
:100840008217930788F040911B0150911C014115BC
:10085000510561F060912201709123018DE191E0D9
:100860000E947B0381E0089580E0089581E008956F
:1008700084B18FEF84B92EE088E190E00FB6F89450
:10088000A895809360000FBE209360008DE191E0F9
:100890000E9411030E94BF01539A8AEF90E0A8952D
:1008A000EFE3FFE13197F1F700C000000197B9F7DE
:1008B00053987894A8950E94A900FCCF86E091E017
:1008C00090931E0180931D010895EE0FFF1F059068
:1008D000F491E02D0994CF93DF93AC018230910520
:1008E00010F442E050E0E0915C01F0915D0120E005
:1008F00030E0A0E0B0E024C08081918184179507AA
:10090000D0F08417950771F482819381109729F0B4
:1009100013969C938E9312972CC090935D018093B5
:100920005C0127C02115310519F08217930718F4CF
:100930009C01BD01EF0192818381DF01E92FF82F36
:100940003097D1F621153105F9F0C901841B950BBB
:100950008430910580F48A819B816115710521F0B5
:10096000FB019383828304C090935D0180935C01BB
:10097000FE01329642C0FE01E80FF91F41935193E8
:1009800002979983888339C080915A0190915B01C5
:10099000009741F4809112019091130190935B01B3
:1009A00080935A01209110013091110121153105D8
:1009B00041F42DB73EB78091140190911501281B89
:1009C000390BE0915A01F0915B01E217F30798F4BB
:1009D0002E1B3F0B2417350770F0CA01029628170B
:1009E000390748F08E0F9F1F90935B0180935A0147
:1009F0004193519302C0E0E0F0E0CF01DF91CF914D
:100A000008950F931F93CF93DF939C01009709F4F0
:100A10008CC0DC01129713961C921E921297609163
:100A20005C0170915D016115710589F48D919C9156
:100A30001197820F931F20915A0130915B01281763
:100A4000390769F5B0935B01A0935A016EC0FB01B1
:100A500040E050E001C0FC01EA17FB0730F482815E
:100A60009381AF010097B9F71FC0E9012297FB837B
:100A7000EA8308811981C901800F911F8E179F0792
:100A800059F480819181800F911F02969983888308
:100A9000828193819B838A834115510529F4B09308
:100AA0005D01A0935C0141C0FA01B383A283C191AF
:100AB000D191EC0FFD1FAE17BF0781F4F9019291A0
:100AC00082918C0F9D1F0296DA0111969C938E9352
:100AD0008281938113969C938E931297E0E0F0E0CD
:100AE00002C0FB01BC01DB0112968D919C91139712
:100AF0000097B9F7CB0102962D913C911197820F87
:100B0000931F20915A0130915B012817390769F42E
:100B1000309729F410925D0110925C0102C013829B
:100B2000128270935B0160935A01DF91CF911F9104
:080B30000F910895F894FFCF26
:100B38005AFF00000000110306037B030E03100395
:060B480000005E01200028
:00000001FF
