:100000000C945F000C94D1010C9487000C94870031
:100010000C9487000C9487000C9487000C94870044
:100020000C9487000C9487000C9487000C94870034
:100030000C9487000C9487000C9487000C94870024
:100040000C9487000C9487000C9487000C94870014
:100050000C9487000C9487000C9487000C94870004
:100060000C9487000C94870009021900010100809C
:10007000FA090400000100000000070581020800E1
:100080000112011001FF000008C016DC050001018B
:10009000020001140361006D00620069006C0069D8
:1000A0000067006800740010036D0075007400653F
:1000B000007800720065000403090400DF031124C6
:1000C0001FBECFEFD8E0DEBFCDBF11E0A0E0B1E0B2
:1000D000E0EFF7E002C005900D92A031B107D9F72B
:1000E00011E0A0E1B1E001C01D92A03BB107E1F732
:1000F00010E0CEEBD0E004C02297FE010E94F20394
:10010000CC3BD107C9F70E94BC030C94F6030C94B6
:100110000000CF93C62F2091850124FF07C02091B6
:10012000860138E823272093860103C02AE520931F
:1001300085012C2FFC01A7E8B1E081918D9321501E
:100140001216DCF387E891E06C2F0E94CD01CC5FA2
:10015000C0938501CF910895CF93DF93609196016D
:10016000635067FDA3C0209193018CE090E0821B57
:100170009109EC01C656DE4F20919201203120F406
:10018000CE010E94090390C02D3209F08DC0683065
:1001900009F08AC023EC20937A012AE5209300011C
:1001A000109210012881207621F0CE010E949B033D
:1001B00072C03A81109283012981222331F4109276
:1001C000840123E831E082E062C0253019F43093E5
:1001D00097015AC0263009F041C0FC01E456FE4F99
:1001E000208183569E4FFC018081813041F481E85B
:1001F00090E0909395018093940182E12BC082302E
:1002000041F488E690E0909395018093940189E110
:1002100021C08330F1F4222341F487EB90E09093E6
:1002200095018093940184E015C0213041F487EA60
:1002300090E0909395018093940180E10BC022306F
:1002400041F483E990E0909395018093940184E1D7
:1002500001C080E090E4909310011DC0283069F047
:10026000293019F4309399010FC02A3049F02B300E
:1002700059F48BE48093860107C029E931E002C07C
:1002800023E831E081E003C023E831E080E03093EF
:100290009501209394019F81992321F49E819817C1
:1002A00008F4892F8093010110929601809100013A
:1002B00084FF44C0809101018F3F09F43FC0C82FE3
:1002C000893008F0C8E08C1B8093010180917A018D
:1002D00098E8892780937A01CC2319F180919401C1
:1002E000909195012091100126FF0AC0FC012C2F4E
:1002F000ABE7B1E034913D9331962150D9F708C076
:10030000DC012C2FEBE7F1E03D9131932150E1F737
:1003100001962C2F2150820F911D9093950180936F
:1003200094018BE791E06C2F0E94CD01CC5FCC3023
:1003300019F08FEF80930101C093000184E199B11E
:100340009C7031F48150D9F710929701109291016D
:10035000DF91CF910895E9E6F0E0808182608083AB
:10036000E89A8BE4809386018AE58093850108955D
:10037000A82FB92F80E090E041E050EA609530E08E
:1003800009C02D9182279795879510F0842795278E
:10039000305EC8F36F5FA8F30895EADF8D939D93F5
:1003A0000895CF93CFB7CF93DF93C3954B9BE9F7D6
:1003B0004B9B0BC04B9B09C04B9B07C04B9B05C085
:1003C0004B9B03C04B9B01C08EC06F93C0919301A8
:1003D000DD27C656DE4F2F9365E54B9B03C02F915B
:1003E0006F91E6CF0F931F934F9320E040E15F930F
:1003F00009B10C7003FB27F93F9350E03BE039C093
:100400001C7040642F77012F5F5F1EC0406819B1D8
:100410001C702F7752501FC0406409B12F770C70A9
:10042000D1F15F5F00C023C0406219B12F771C700B
:1004300091F15F5F00C025C00C701027515012F47D
:100440005D5F0000115027952C3F19B1C8F61C7054
:100450000127015027952C3FC8F64227499309B13F
:100460000C7010274F73115027952C3FA8F6469516
:10047000469519B11C7079F00127015027952C3F42
:1004800098F66B5A60F3315009B1B0F600C011E034
:100490001CBB00271CC03B503195C31BD04011E052
:1004A0001CBB0881033C21F10B3411F12091910117
:1004B0001981110F1213EDCF4A81441F093669F1DA
:1004C0000D3211F0013E29F74F7009F0042F00930F
:1004D00098013F915F914F911F910F912F916F91D3
:1004E000CCB3C0FD62CFDF91CF91CFBFCF91189534
:1004F00020919801222369F310919601112391F51F
:10050000343092F13093960120939201109193012F
:100510003BE0311B3093930127C0009196010130DD
:100520000CF50AE54F7049F43091000134FD1DC00F
:1005300000930001CAE7D1E01CC03091850134FD71
:1005400014C000938501C6E8D1E013C0052710E070
:1005500000C000000BB91AC0052710E0221F1DC003
:1005600010E021C04AE502C032ED432FC4E1D0E0E3
:1005700032E01AB11C605B9A0BB11AB95CE020E85A
:1005800065E320FF05270BB9279517951C3FF0F66B
:100590006695B8F7B1F720FF05270BB92795179592
:1005A0001C3FD0F62795179517FF052700001C3F25
:1005B0000BB9B0F629913A9519F7037F109197017D
:1005C000110FC651D0400BB911F01093910111E0F9
:1005D0001CBB08601AB1137F402F437F54E05A952B
:1005E000F1F70BB91AB94BB974CFDC01ED91FC915D
:1005F0000190F081E02D0995089581E00895089516
:10060000FC01259A80E2828385E290E094838383D3
:10061000089508950F93001401E00A95F1F70F91E2
:1006200008950F93001402E00A95F1F70F910895D1
:10063000DF92EF92FF920F931F93CF93DF93FC0112
:100640008B01F894F2800380F481E02DEA01CC0F55
:10065000DD1FC40FD51FC60FD71FE080EF28808194
:10066000F094F822F0825AC0F801D1908F01E5B8D9
:10067000001400140014D7FEF5B80E940A03F5B860
:100680000E941103E5B8001400140014D6FEF5B85A
:100690000E940A03F5B80E941103E5B80014001483
:1006A0000014D5FEF5B80E940A03F5B80E941103A4
:1006B000E5B8001400140014D4FEF5B80E940A0333
:1006C000F5B80E941103E5B8001400140014D3FE1D
:1006D000F5B80E940A03F5B80E941103E5B80014AA
:1006E00000140014D2FEF5B80E940A03F5B80E9467
:1006F0001103E5B8001400140014D1FEF5B80E94EF
:100700000A03F5B80E941103E5B8001400140014A0
:10071000D0FEF5B80E940A03F5B80014C017D1073F
:1007200008F0A2CF7894DF91CF911F910F91FF90A5
:10073000EF90DF90089581E090911101911180E098
:1007400080931101E9E1F1E0819596E9DF011297CB
:100750008C93DF0111979C931082339621E0EC3744
:10076000F207A1F782E191E067E171E041E250E038
:100770000E94180380E008952EE088E190E00FB613
:10078000F894A895809360000FBE2093600082E1EA
:1007900091E00E9400030E94AB01539A8AEF90E01F
:1007A000A895EFE3FFE13197F1F700C00000019752
:1007B000B9F753987894A8950E94AC00FCCFE7E174
:1007C000F1E0108211821282339681E0EA37F80755
:1007D000C1F786E091E09093130180931201089590
:1007E000EE0FFF1F0590F491E02D0994F894FFCFD0
:1007F0005AFF000000000003F5021803FD02FF028B
:00000001FF
